{
  "contractName": "MerkleProof",
  "abi": [
    {
      "inputs": [
        {
          "internalType": "bytes32[]",
          "name": "proof",
          "type": "bytes32[]"
        },
        {
          "internalType": "bytes32",
          "name": "root",
          "type": "bytes32"
        },
        {
          "internalType": "address",
          "name": "user",
          "type": "address"
        },
        {
          "internalType": "uint256",
          "name": "tokens",
          "type": "uint256"
        },
        {
          "internalType": "uint256",
          "name": "index",
          "type": "uint256"
        }
      ],
      "name": "verify",
      "outputs": [
        {
          "internalType": "bool",
          "name": "",
          "type": "bool"
        }
      ],
      "stateMutability": "pure",
      "type": "function"
    }
  ],
  "bytecode": "0x608060405234801561001057600080fd5b50610628806100206000396000f3fe608060405234801561001057600080fd5b506004361061002b5760003560e01c80635b2da56814610030575b600080fd5b61004a60048036038101906100459190610258565b610060565b604051610057919061034c565b60405180910390f35b6000808484604051602001610076929190610323565b60405160208183030381529060405280519060200120905060005b87518110156101735760008882815181106100d5577f4e487b7100000000000000000000000000000000000000000000000000000000600052603260045260246000fd5b6020026020010151905060006002866100ee91906104de565b1415610124578281604051602001610107929190610367565b604051602081830303815290604052805190602001209250610150565b8083604051602001610137929190610367565b6040516020818303038152906040528051906020012092505b60028561015d91906103e1565b945050808061016b90610495565b915050610091565b5085811491505095945050505050565b6000610196610191846103b5565b610390565b905080838252602082019050828560208602820111156101b557600080fd5b60005b858110156101e557816101cb888261022e565b8452602084019350602083019250506001810190506101b8565b5050509392505050565b6000813590506101fe816105ad565b92915050565b600082601f83011261021557600080fd5b8135610225848260208601610183565b91505092915050565b60008135905061023d816105c4565b92915050565b600081359050610252816105db565b92915050565b600080600080600060a0868803121561027057600080fd5b600086013567ffffffffffffffff81111561028a57600080fd5b61029688828901610204565b95505060206102a78882890161022e565b94505060406102b8888289016101ef565b93505060606102c988828901610243565b92505060806102da88828901610243565b9150509295509295909350565b6102f081610412565b82525050565b6102ff81610424565b82525050565b61030e81610430565b82525050565b61031d8161045a565b82525050565b600060408201905061033860008301856102e7565b6103456020830184610314565b9392505050565b600060208201905061036160008301846102f6565b92915050565b600060408201905061037c6000830185610305565b6103896020830184610305565b9392505050565b600061039a6103ab565b90506103a68282610464565b919050565b6000604051905090565b600067ffffffffffffffff8211156103d0576103cf61056d565b5b602082029050602081019050919050565b60006103ec8261045a565b91506103f78361045a565b9250826104075761040661053e565b5b828204905092915050565b600061041d8261043a565b9050919050565b60008115159050919050565b6000819050919050565b600073ffffffffffffffffffffffffffffffffffffffff82169050919050565b6000819050919050565b61046d8261059c565b810181811067ffffffffffffffff8211171561048c5761048b61056d565b5b80604052505050565b60006104a08261045a565b91507fffffffffffffffffffffffffffffffffffffffffffffffffffffffffffffffff8214156104d3576104d261050f565b5b600182019050919050565b60006104e98261045a565b91506104f48361045a565b9250826105045761050361053e565b5b828206905092915050565b7f4e487b7100000000000000000000000000000000000000000000000000000000600052601160045260246000fd5b7f4e487b7100000000000000000000000000000000000000000000000000000000600052601260045260246000fd5b7f4e487b7100000000000000000000000000000000000000000000000000000000600052604160045260246000fd5b6000601f19601f8301169050919050565b6105b681610412565b81146105c157600080fd5b50565b6105cd81610430565b81146105d857600080fd5b50565b6105e48161045a565b81146105ef57600080fd5b5056fea264697066735822122039b250d56ad890cae9568f63c712801f890f73a7d467f84cfb7b785363aea87864736f6c63430008040033",
  "immutableReferences": {},
  "source": "// SPDX-License-Identifier: MIT\npragma solidity ^0.8.3;\n\ncontract MerkleProof {\n  function verify(\n    bytes32[] memory proof,\n    bytes32 root,\n    address user,\n    uint256 tokens,\n    uint256 index\n  ) public pure returns (bool) {\n    bytes32 hash = keccak256(abi.encode(user, tokens));\n\n    for (uint256 i = 0; i < proof.length; i++) {\n      bytes32 proofElement = proof[i];\n\n      if (index % 2 == 0) {\n        hash = keccak256(abi.encode(hash, proofElement));\n      } else {\n        hash = keccak256(abi.encode(proofElement, hash));\n      }\n      index = index / 2;\n    }\n\n    return hash == root;\n  }\n}\n\ncontract TestMerkleProof is MerkleProof {\n  bytes32[] public hashes;\n\n  constructor(address[] memory addresses, uint256[] memory tokens) {\n    uint256 n = addresses.length;\n\n    for (uint256 i = 0; i < n; i++) {\n      hashes.push(keccak256(abi.encode(addresses[i], tokens[i])));\n    }\n\n    uint256 offset = 0;\n    //uint256 odd = 0;\n\n    while (n > 1) {\n      for (uint256 i = 0; i < n - 1; i += 2) {\n        hashes.push(\n          keccak256(abi.encode(hashes[offset + i], hashes[offset + i + 1]))\n        );\n      }\n      /*if (n % 2 != 0 && odd > 0) {\n        hashes.push(keccak256(abi.encode(hashes[offset + n - 1], hashes[odd])));\n        odd = 0;\n        offset += n;\n        n = (n + 1) / 2;\n      } else {\n        if (n % 2 != 0) {\n          odd = offset + n - 1;\n        }\n        offset += n;\n        n = n / 2;\n      }*/\n\n      if (n % 2 != 0) {\n        hashes.push(\n          keccak256(abi.encode(hashes[offset + n - 1], hashes[offset + n - 1]))\n        );\n        offset += n;\n        n = (n + 1) / 2;\n      } else {\n        offset += n;\n        n = n / 2;\n      }\n    }\n  }\n\n  function getRoot() public view returns (bytes32) {\n    return hashes[hashes.length - 1];\n  }\n\n  /* verify\n    3rd leaf\n    0x1bbd78ae6188015c4a6772eb1526292b5985fc3272ead4c65002240fb9ae5d13\n\n    root\n    0x074b43252ffb4a469154df5fb7fe4ecce30953ba8b7095fe1e006185f017ad10\n\n    index\n    2\n\n    proof\n    0x948f90037b4ea787c14540d9feb1034d4a5bc251b9b5f8e57d81e4b470027af8\n    0x63ac1b92046d474f84be3aa0ee04ffe5600862228c81803cce07ac40484aee43\n    */\n}\n",
  "sourcePath": "/Users/rpark23/Desktop/merkle/contracts/Merkle.sol",
  "compiler": {
    "name": "solc",
    "version": "0.8.4+commit.c7e474f2.Emscripten.clang"
  },
  "schemaVersion": "3.4.3",
  "updatedAt": "2021-08-24T02:15:13.178Z",
  "devdoc": {
    "kind": "dev",
    "methods": {},
    "version": 1
  },
  "userdoc": {
    "kind": "user",
    "methods": {},
    "version": 1
  }
}