{
  "contractName": "TestMerkleProof",
  "abi": [
    {
      "inputs": [
        {
          "internalType": "address[]",
          "name": "addresses",
          "type": "address[]"
        },
        {
          "internalType": "uint256[]",
          "name": "tokens",
          "type": "uint256[]"
        }
      ],
      "stateMutability": "nonpayable",
      "type": "constructor"
    },
    {
      "inputs": [
        {
          "internalType": "uint256",
          "name": "",
          "type": "uint256"
        }
      ],
      "name": "hashes",
      "outputs": [
        {
          "internalType": "bytes32",
          "name": "",
          "type": "bytes32"
        }
      ],
      "stateMutability": "view",
      "type": "function",
      "constant": true
    },
    {
      "inputs": [
        {
          "internalType": "bytes32[]",
          "name": "proof",
          "type": "bytes32[]"
        },
        {
          "internalType": "bytes32",
          "name": "root",
          "type": "bytes32"
        },
        {
          "internalType": "address",
          "name": "user",
          "type": "address"
        },
        {
          "internalType": "uint256",
          "name": "tokens",
          "type": "uint256"
        },
        {
          "internalType": "uint256",
          "name": "index",
          "type": "uint256"
        }
      ],
      "name": "verify",
      "outputs": [
        {
          "internalType": "bool",
          "name": "",
          "type": "bool"
        }
      ],
      "stateMutability": "pure",
      "type": "function",
      "constant": true
    },
    {
      "inputs": [],
      "name": "getRoot",
      "outputs": [
        {
          "internalType": "bytes32",
          "name": "",
          "type": "bytes32"
        }
      ],
      "stateMutability": "view",
      "type": "function",
      "constant": true
    }
  ],
  "bytecode": "0x60806040523480156200001157600080fd5b506040516200113b3803806200113b83398181016040528101906200003791906200057a565b60008251905060005b818110156200013457600084828151811062000085577f4e487b7100000000000000000000000000000000000000000000000000000000600052603260045260246000fd5b6020026020010151848381518110620000c7577f4e487b7100000000000000000000000000000000000000000000000000000000600052603260045260246000fd5b6020026020010151604051602001620000e292919062000620565b60405160208183030381529060405280519060200120908060018154018082558091505060019003906000526020600020016000909190919091505580806200012b906200084f565b91505062000040565b5060005b6001821115620003fe5760005b60018362000154919062000796565b811015620002775760008082846200016d919062000701565b81548110620001a5577f4e487b7100000000000000000000000000000000000000000000000000000000600052603260045260246000fd5b9060005260206000200154600060018486620001c2919062000701565b620001ce919062000701565b8154811062000206577f4e487b7100000000000000000000000000000000000000000000000000000000600052603260045260246000fd5b9060005260206000200154604051602001620002249291906200064d565b6040516020818303038152906040528051906020012090806001815401808255809150506001900390600052602060002001600090919091909150556002816200026f919062000701565b905062000145565b5060006002836200028991906200089d565b14620003d65760008060018484620002a2919062000701565b620002ae919062000796565b81548110620002e6577f4e487b7100000000000000000000000000000000000000000000000000000000600052603260045260246000fd5b906000526020600020015460006001858562000303919062000701565b6200030f919062000796565b8154811062000347577f4e487b7100000000000000000000000000000000000000000000000000000000600052603260045260246000fd5b9060005260206000200154604051602001620003659291906200064d565b6040516020818303038152906040528051906020012090806001815401808255809150506001900390600052602060002001600090919091909150558181620003af919062000701565b90506002600183620003c2919062000701565b620003ce91906200075e565b9150620003f8565b8181620003e4919062000701565b9050600282620003f591906200075e565b91505b62000138565b50505050620009a7565b60006200041f6200041984620006a3565b6200067a565b905080838252602082019050828560208602820111156200043f57600080fd5b60005b85811015620004735781620004588882620004f2565b84526020840193506020830192505060018101905062000442565b5050509392505050565b6000620004946200048e84620006d2565b6200067a565b90508083825260208201905082856020860282011115620004b457600080fd5b60005b85811015620004e85781620004cd888262000563565b845260208401935060208301925050600181019050620004b7565b5050509392505050565b600081519050620005038162000973565b92915050565b600082601f8301126200051b57600080fd5b81516200052d84826020860162000408565b91505092915050565b600082601f8301126200054857600080fd5b81516200055a8482602086016200047d565b91505092915050565b60008151905062000574816200098d565b92915050565b600080604083850312156200058e57600080fd5b600083015167ffffffffffffffff811115620005a957600080fd5b620005b78582860162000509565b925050602083015167ffffffffffffffff811115620005d557600080fd5b620005e38582860162000536565b9150509250929050565b620005f881620007d1565b82525050565b6200060981620007e5565b82525050565b6200061a816200080f565b82525050565b6000604082019050620006376000830185620005ed565b6200064660208301846200060f565b9392505050565b6000604082019050620006646000830185620005fe565b620006736020830184620005fe565b9392505050565b60006200068662000699565b905062000694828262000819565b919050565b6000604051905090565b600067ffffffffffffffff821115620006c157620006c062000933565b5b602082029050602081019050919050565b600067ffffffffffffffff821115620006f057620006ef62000933565b5b602082029050602081019050919050565b60006200070e826200080f565b91506200071b836200080f565b9250827fffffffffffffffffffffffffffffffffffffffffffffffffffffffffffffffff03821115620007535762000752620008d5565b5b828201905092915050565b60006200076b826200080f565b915062000778836200080f565b9250826200078b576200078a62000904565b5b828204905092915050565b6000620007a3826200080f565b9150620007b0836200080f565b925082821015620007c657620007c5620008d5565b5b828203905092915050565b6000620007de82620007ef565b9050919050565b6000819050919050565b600073ffffffffffffffffffffffffffffffffffffffff82169050919050565b6000819050919050565b620008248262000962565b810181811067ffffffffffffffff8211171562000846576200084562000933565b5b80604052505050565b60006200085c826200080f565b91507fffffffffffffffffffffffffffffffffffffffffffffffffffffffffffffffff821415620008925762000891620008d5565b5b600182019050919050565b6000620008aa826200080f565b9150620008b7836200080f565b925082620008ca57620008c962000904565b5b828206905092915050565b7f4e487b7100000000000000000000000000000000000000000000000000000000600052601160045260246000fd5b7f4e487b7100000000000000000000000000000000000000000000000000000000600052601260045260246000fd5b7f4e487b7100000000000000000000000000000000000000000000000000000000600052604160045260246000fd5b6000601f19601f8301169050919050565b6200097e81620007d1565b81146200098a57600080fd5b50565b62000998816200080f565b8114620009a457600080fd5b50565b61078480620009b76000396000f3fe608060405234801561001057600080fd5b50600436106100415760003560e01c8063501895ae146100465780635b2da568146100765780635ca1e165146100a6575b600080fd5b610060600480360381019061005b91906103cb565b6100c4565b60405161006d9190610474565b60405180910390f35b610090600480360381019061008b919061033c565b6100e8565b60405161009d9190610459565b60405180910390f35b6100ae61020b565b6040516100bb9190610474565b60405180910390f35b600081815481106100d457600080fd5b906000526020600020016000915090505481565b60008084846040516020016100fe929190610430565b60405160208183030381529060405280519060200120905060005b87518110156101fb57600088828151811061015d577f4e487b7100000000000000000000000000000000000000000000000000000000600052603260045260246000fd5b602002602001015190506000600286610176919061063a565b14156101ac57828160405160200161018f92919061048f565b6040516020818303038152906040528051906020012092506101d8565b80836040516020016101bf92919061048f565b6040516020818303038152906040528051906020012092505b6002856101e59190610509565b94505080806101f3906105f1565b915050610119565b5085811491505095945050505050565b6000806001600080549050610220919061053a565b81548110610257577f4e487b7100000000000000000000000000000000000000000000000000000000600052603260045260246000fd5b9060005260206000200154905090565b600061027a610275846104dd565b6104b8565b9050808382526020820190508285602086028201111561029957600080fd5b60005b858110156102c957816102af8882610312565b84526020840193506020830192505060018101905061029c565b5050509392505050565b6000813590506102e281610709565b92915050565b600082601f8301126102f957600080fd5b8135610309848260208601610267565b91505092915050565b60008135905061032181610720565b92915050565b60008135905061033681610737565b92915050565b600080600080600060a0868803121561035457600080fd5b600086013567ffffffffffffffff81111561036e57600080fd5b61037a888289016102e8565b955050602061038b88828901610312565b945050604061039c888289016102d3565b93505060606103ad88828901610327565b92505060806103be88828901610327565b9150509295509295909350565b6000602082840312156103dd57600080fd5b60006103eb84828501610327565b91505092915050565b6103fd8161056e565b82525050565b61040c81610580565b82525050565b61041b8161058c565b82525050565b61042a816105b6565b82525050565b600060408201905061044560008301856103f4565b6104526020830184610421565b9392505050565b600060208201905061046e6000830184610403565b92915050565b60006020820190506104896000830184610412565b92915050565b60006040820190506104a46000830185610412565b6104b16020830184610412565b9392505050565b60006104c26104d3565b90506104ce82826105c0565b919050565b6000604051905090565b600067ffffffffffffffff8211156104f8576104f76106c9565b5b602082029050602081019050919050565b6000610514826105b6565b915061051f836105b6565b92508261052f5761052e61069a565b5b828204905092915050565b6000610545826105b6565b9150610550836105b6565b9250828210156105635761056261066b565b5b828203905092915050565b600061057982610596565b9050919050565b60008115159050919050565b6000819050919050565b600073ffffffffffffffffffffffffffffffffffffffff82169050919050565b6000819050919050565b6105c9826106f8565b810181811067ffffffffffffffff821117156105e8576105e76106c9565b5b80604052505050565b60006105fc826105b6565b91507fffffffffffffffffffffffffffffffffffffffffffffffffffffffffffffffff82141561062f5761062e61066b565b5b600182019050919050565b6000610645826105b6565b9150610650836105b6565b9250826106605761065f61069a565b5b828206905092915050565b7f4e487b7100000000000000000000000000000000000000000000000000000000600052601160045260246000fd5b7f4e487b7100000000000000000000000000000000000000000000000000000000600052601260045260246000fd5b7f4e487b7100000000000000000000000000000000000000000000000000000000600052604160045260246000fd5b6000601f19601f8301169050919050565b6107128161056e565b811461071d57600080fd5b50565b6107298161058c565b811461073457600080fd5b50565b610740816105b6565b811461074b57600080fd5b5056fea264697066735822122044cc0d8cf11c709d462e204bc1f41afc4b65b2f8ad0c23c7b7f91751880b80c564736f6c63430008040033",
  "immutableReferences": {},
  "source": "// SPDX-License-Identifier: MIT\npragma solidity ^0.8.3;\n\ncontract MerkleProof {\n  function verify(\n    bytes32[] memory proof,\n    bytes32 root,\n    address user,\n    uint256 tokens,\n    uint256 index\n  ) public pure returns (bool) {\n    bytes32 hash = keccak256(abi.encode(user, tokens));\n\n    for (uint256 i = 0; i < proof.length; i++) {\n      bytes32 proofElement = proof[i];\n\n      if (index % 2 == 0) {\n        hash = keccak256(abi.encode(hash, proofElement));\n      } else {\n        hash = keccak256(abi.encode(proofElement, hash));\n      }\n      index = index / 2;\n    }\n\n    return hash == root;\n  }\n}\n\ncontract TestMerkleProof is MerkleProof {\n  bytes32[] public hashes;\n\n  constructor(address[] memory addresses, uint256[] memory tokens) {\n    uint256 n = addresses.length;\n\n    for (uint256 i = 0; i < n; i++) {\n      hashes.push(keccak256(abi.encode(addresses[i], tokens[i])));\n    }\n\n    uint256 offset = 0;\n    //uint256 odd = 0;\n\n    while (n > 1) {\n      for (uint256 i = 0; i < n - 1; i += 2) {\n        hashes.push(\n          keccak256(abi.encode(hashes[offset + i], hashes[offset + i + 1]))\n        );\n      }\n      /*if (n % 2 != 0 && odd > 0) {\n        hashes.push(keccak256(abi.encode(hashes[offset + n - 1], hashes[odd])));\n        odd = 0;\n        offset += n;\n        n = (n + 1) / 2;\n      } else {\n        if (n % 2 != 0) {\n          odd = offset + n - 1;\n        }\n        offset += n;\n        n = n / 2;\n      }*/\n\n      if (n % 2 != 0) {\n        hashes.push(\n          keccak256(abi.encode(hashes[offset + n - 1], hashes[offset + n - 1]))\n        );\n        offset += n;\n        n = (n + 1) / 2;\n      } else {\n        offset += n;\n        n = n / 2;\n      }\n    }\n  }\n\n  function getRoot() public view returns (bytes32) {\n    return hashes[hashes.length - 1];\n  }\n\n  /* verify\n    3rd leaf\n    0x1bbd78ae6188015c4a6772eb1526292b5985fc3272ead4c65002240fb9ae5d13\n\n    root\n    0x074b43252ffb4a469154df5fb7fe4ecce30953ba8b7095fe1e006185f017ad10\n\n    index\n    2\n\n    proof\n    0x948f90037b4ea787c14540d9feb1034d4a5bc251b9b5f8e57d81e4b470027af8\n    0x63ac1b92046d474f84be3aa0ee04ffe5600862228c81803cce07ac40484aee43\n    */\n}\n",
  "sourcePath": "/Users/rpark23/Desktop/merkle/contracts/Merkle.sol",
  "compiler": {
    "name": "solc",
    "version": "0.8.4+commit.c7e474f2.Emscripten.clang"
  },
  "schemaVersion": "3.4.3",
  "updatedAt": "2021-08-24T04:14:06.096Z",
  "networkType": "ethereum",
  "devdoc": {
    "kind": "dev",
    "methods": {},
    "version": 1
  },
  "userdoc": {
    "kind": "user",
    "methods": {},
    "version": 1
  }
}