{
  "contractName": "Test",
  "abi": [
    {
      "inputs": [
        {
          "internalType": "address",
          "name": "x",
          "type": "address"
        },
        {
          "internalType": "uint96",
          "name": "tokens",
          "type": "uint96"
        }
      ],
      "name": "encodeAllocation",
      "outputs": [
        {
          "internalType": "bytes",
          "name": "",
          "type": "bytes"
        }
      ],
      "stateMutability": "pure",
      "type": "function",
      "constant": true
    }
  ],
  "bytecode": "0x608060405234801561001057600080fd5b50610305806100206000396000f3fe608060405234801561001057600080fd5b506004361061002b5760003560e01c8063a9baadf914610030575b600080fd5b61004a600480360381019061004591906100b6565b610060565b6040516100579190610185565b60405180910390f35b60608282604051602001610075929190610159565b604051602081830303815290604052905092915050565b60008135905061009b816102a1565b92915050565b6000813590506100b0816102b8565b92915050565b600080604083850312156100c957600080fd5b60006100d78582860161008c565b92505060206100e8858286016100a1565b9150509250929050565b6101036100fe826101c3565b610240565b82525050565b6000610114826101a7565b61011e81856101b2565b935061012e81856020860161020d565b61013781610276565b840191505092915050565b61015361014e826101f5565b610264565b82525050565b600061016582856100f2565b6014820191506101758284610142565b600c820191508190509392505050565b6000602082019050818103600083015261019f8184610109565b905092915050565b600081519050919050565b600082825260208201905092915050565b60006101ce826101d5565b9050919050565b600073ffffffffffffffffffffffffffffffffffffffff82169050919050565b60006bffffffffffffffffffffffff82169050919050565b60005b8381101561022b578082015181840152602081019050610210565b8381111561023a576000848401525b50505050565b600061024b82610252565b9050919050565b600061025d82610294565b9050919050565b600061026f82610287565b9050919050565b6000601f19601f8301169050919050565b60008160a01b9050919050565b60008160601b9050919050565b6102aa816101c3565b81146102b557600080fd5b50565b6102c1816101f5565b81146102cc57600080fd5b5056fea2646970667358221220f8ea183dda73c15b968deb24043b23eea0b7ae6bd3a5e44c815caaad6b29377064736f6c63430008040033",
  "immutableReferences": {},
  "source": "// SPDX-License-Identifier: MIT\npragma solidity ^0.8.3;\n\ncontract Test {\n  function encodeAllocation(address x, uint96 tokens)\n    public\n    pure\n    returns (bytes memory)\n  {\n    return abi.encodePacked(x, tokens);\n  }\n}\n",
  "sourcePath": "/Users/rpark23/Desktop/merkle/contracts/Test.sol",
  "compiler": {
    "name": "solc",
    "version": "0.8.4+commit.c7e474f2.Emscripten.clang"
  },
  "schemaVersion": "3.4.3",
  "updatedAt": "2021-08-22T23:14:46.563Z",
  "networkType": "ethereum",
  "devdoc": {
    "kind": "dev",
    "methods": {},
    "version": 1
  },
  "userdoc": {
    "kind": "user",
    "methods": {},
    "version": 1
  }
}